HEBV03E202312220017000000000080128456                                          
HEH8822014182TW1940110911100048HCPP                                            
HETV406A  0080000120231222367                                                  
HEE0001000000001                                                               
